:1000000045C0000060C000005EC000005CC0000091
:100010005AC0000058C0000056C0000054C0000084
:1000200052C0000050C000004EC000004CC0000094
:100030004AC000007EC0000046C0000044C000006E
:1000400042C0000040C000003EC000003CC00000B4
:100050003AC0000038C0000036C0000034C00000C4
:1000600032C0000030C000002EC000002CC00000D4
:100070002AC0000028C0000026C0000024C00000E4
:1000800022C0000020C000001EC0000011241FBEBE
:10009000CFEFD0E4DEBFCDBF11E0A0E0B1E0E2E3FE
:1000A000F3E000E00BBF02C007900D92A631B1074C
:1000B000D9F721E0A6E1B1E001C01D92AD31B20750
:1000C000E1F71FD134C19CCF6093120170931301EB
:1000D0008093140190931501609318017093190196
:1000E00080931A0190931B0108958BE08093810007
:1000F0008DE790E0909389008093880082E0809360
:100100006F001092850010928400809112019091EE
:100110001301A0911401B0911501809318019093DF
:100120001901A0931A01B0931B018FB780688FBF8C
:1001300008951F920F920FB60F9211248F939F93E1
:10014000AF93BF938091180190911901A0911A016A
:10015000B0911B010197A109B109809318019093F7
:100160001901A0931A01B0931B01892B8A2B8B2BA9
:1001700099F481E080931C01809112019091130108
:10018000A0911401B0911501809318019093190169
:10019000A0931A01B0931B01BF91AF919F918F91D2
:1001A0000F900FBE0F901F901895CF93DF93E0E054
:1001B000F0E058E0C82FD0E058B938B1DE010E2E7B
:1001C00002C0B595A7950A94E2F79A2F9170932BE8
:1001D00098B9419A3196E830F10571F780E090E0E6
:1001E000A8E070E0A8B958B1FB01082E02C0F5954F
:1001F000E7950A94E2F73E2F3170352B38B9419AD2
:1002000001968830910571F787E090E0A8E0E42F2F
:10021000F0E0A8B958B1BF01082E02C075956795E6
:100220000A94E2F7362F3170352B38B9419A01978D
:1002300080F787E090E058E0E22FF0E058B948B14D
:10024000BF01082E02C0759567950A94E2F7362F14
:100250003170342B38B9419A019780F7429A18B817
:10026000DF91CF910895809110018E3F91F480919C
:100270001101803839F48FE78093100181E0809379
:1002800011010BC09FE790931001880F809311011B
:1002900004C086958068809310012FEF4FEF609126
:1002A00010018091110181CF0895EF92FF920F9379
:1002B0001F93CF93DF93C0E0D1E00F2EF8E0EF2E35
:1002C000F1E0FF2EF02D8E01899180931101F8014C
:1002D0006085609310012FEF4FEF67DFFFE72AE1A2
:1002E00086E0F15020408040E1F700C00000CE15CC
:1002F000DF0551F7DF91CF911F910F91FF90EF90A4
:1003000008958FEF87B918B868EE73E080E090E049
:10031000DBDEEBDE6091160180911701C6DFA3DF03
:1003200080911C018823E1F310921C01F3CFF89413
:02033000FFCFFD
:1003320001020408102040807FBFDFEFF7FBFDFFC2
:06034200FF0101000000B4
:00000001FF
